:100000000C9468000C9490000C9490000C94900058
:100010000C9490000C9490000C9490000C94900020
:100020000C9490000C9490000C9490000C94900010
:100030000C9490000C9490000C9490000C94900000
:100040000C9415020C9490000C94C7040C94F904C1
:100050000C9490000C9490000C9490000C949000E0
:100060000C9490000C949000000000090003020022
:10007000000405080000000000000000000000016E
:10008000020408102040800102040810200102042C
:100090000810204080400404040404040404020204
:1000A000020202020303030303030202030000002F
:1000B0000023002600290000000000250028002B56
:1000C0000000000000240027002A0000BD012905CF
:1000D00011241FBECFEFD8E0DEBFCDBF11E0A0E0FE
:1000E000B1E0E0EAFCE002C005900D92AC33B1074C
:1000F000D9F722E0ACE3B1E001C01D92A932B2070A
:10010000E1F710E0C8E6D0E004C02197FE010E94AC
:100110004806C636D107C9F70E9457050C944E060B
:100120000C94000048EB5BE060E070E08DE391E050
:100130000E94870140E052EC61E070E08DE391E0C5
:100140000E94700161E08DE391E00E946D018823BF
:1001500091F061E071E08CE891E00E94A2054AE034
:1001600050E060E070E08DE391E00E9458018DE383
:1001700091E00E946F0141E060E08DE391E00E9418
:10018000F90161E08DE391E00E946D01882351F057
:1001900062E171E08CE891E00E94A2058DE391E0BC
:1001A0000E946F0180EF8AB98BB1807C8BB962E0CD
:1001B00082E00E942D0362E083E00E942D038BB158
:1001C000909100018F70907F892B8BB926E040E0E1
:1001D00052EC61E070E08CE891E00C946504CF9300
:1001E00082E00E946903C82F80913C018C1761F066
:1001F000C0933C0183E00E946903C817190639F4D3
:100200008FEF9FEFCF91089590E080E0FBCF81E0EA
:1002100090E0F8CF18169CF49091000180910001B5
:10022000990F881F8827881F892B809300018BB125
:10023000909100018F70907F892B8BB908958091E8
:10024000000120910001869590E8299F90011124DA
:10025000822BEBCF0E94EF00009711F00C940A0163
:1002600008958F929F92AF92BF92CF92DF92EF92BA
:10027000FF926A017B010E945F024B015C01C80C86
:10028000D91CEA1CFB1C0E945F02681579058A05CF
:100290009B0528F0C616D706E806F906A0F7FF90DA
:1002A000EF90DF90CF90BF90AF909F908F90089588
:1002B00021E00C943101FC01168217821086118610
:1002C000128613861486158616861786108A118A5A
:1002D000128A138A148A158A089581E00895089570
:1002E000CF92DF92EF92FF926A017B0168EE73E09A
:1002F00080E090E00E94900226E0B701A6018CE821
:1003000091E0FF90EF90DF90CF900C946504FC019A
:10031000EE5BFF4F1082118212821382FC01128267
:10032000138214821582411551056105710511F082
:100330000C94580108951F93CF93DF93EC01162F6F
:1003400069E171E08CE891E00E94A2054AE050E08A
:10035000612F8CE891E00E941E0660E271E08CE85B
:1003600091E00E94AE0542E350E060E070E0CE0113
:10037000DF91CF911F910C9458018DE391E00C9483
:100380005B011F93CF93DF93FC012689222369F140
:10039000162FEC018CE891E00E94920381110BC0B2
:1003A00085E6DF91CF911F91089521373105E9F05E
:1003B00026373105B1F38CE891E00E94920388233F
:1003C00079F38CE891E00E94AC039C013327283636
:1003D000310559F054F72835310549F023363105F8
:1003E00051F7612FCE010E949B0183E6DACF1E8A6E
:1003F000FCCF1F93CF93DF93EC01142F662381F082
:1004000081E08E8B60E0CE010E94C101833641F015
:1004100041E050E060E070E0CE010E945801F2CF70
:100420001E8BDF91CF911F9108951F920F920FB6EF
:100430000F9211242F933F938F939F93AF93BF936A
:100440008091840190918501A0918601B0918701EE
:100450003091830123E0230F2D3758F50196A11D1C
:10046000B11D209383018093840190938501A09313
:100470008601B09387018091880190918901A091B4
:100480008A01B0918B010196A11DB11D8093880155
:1004900090938901A0938A01B0938B01BF91AF9192
:1004A0009F918F913F912F910F900FBE0F901F90B2
:1004B000189526E8230F0296A11DB11DD2CF2FB7A4
:1004C000F8946091840170918501809186019091EA
:1004D00087012FBF08953FB7F894809188019091CC
:1004E0008901A0918A01B0918B0126B5A89B05C016
:1004F0002F3F19F00196A11DB11D3FBFBA2FA92FA3
:10050000982F8827BC01CD01620F711D811D911D9F
:1005100042E0660F771F881F991F4A95D1F708950B
:100520008F929F92AF92BF92CF92DF92EF92FF9203
:100530006B017C010E946B024B015C01C114D10470
:10054000E104F104E9F00E9425060E946B0268199B
:1005500079098A099B09683E73408105910570F30A
:1005600021E0C21AD108E108F10888EE880E83E084
:10057000981EA11CB11CC114D104E104F10429F797
:10058000FF90EF90DF90CF90BF90AF909F908F90B3
:100590000895789484B5826084BD84B5816084BDFB
:1005A00085B5826085BD85B5816085BDEEE6F0E0EC
:1005B000808181608083E1E8F0E010828081826048
:1005C0008083808181608083E0E8F0E080818160C9
:1005D0008083E1EBF0E0808184608083E0EBF0E0F9
:1005E000808181608083EAE7F0E08081846080839D
:1005F0008081826080838081816080838081806847
:1006000080831092C1000895843081F028F48230F4
:1006100099F08330A9F008958830A9F08930C9F0A5
:100620008530B1F4809180008F7D03C0809180007F
:100630008F7780938000089584B58F7784BD089567
:1006400084B58F7DFBCF8091B0008F778093B00011
:1006500008958091B0008F7DF9CFCF93DF9390E024
:10066000FC01E158FF4F24918A569F4FFC01849171
:100670008823C9F090E0880F991FFC01EF53FF4FCA
:10068000A591B491FC01E954FF4FC591D49161113A
:100690000DC09FB7F8948C91209582238C9388810C
:1006A000282328839FBFDF91CF910895623051F4B2
:1006B0009FB7F8943C91822F809583238C93E88197
:1006C0002E2BEFCF8FB7F894EC912E2B2C938FBF5E
:1006D000EACFCF93DF93282F30E0F901E859FF4F9D
:1006E0008491F901E158FF4FD491F901EA56FF4F87
:1006F000C491CC23A1F081110E940403EC2FF0E0FF
:10070000EE0FFF1FE355FF4FA591B491EC91ED2340
:1007100081E090E009F480E0DF91CF91089580E0DE
:1007200090E0FACFFC01918D228D892F90E0805CC2
:100730009F4F821B91098F7399270895FC01918D1A
:10074000828D981731F0828DE80FF11D858D90E034
:1007500008958FEF9FEF0895FC01918D828D98177A
:1007600061F0A28DAE0FBF2FB11D5D968C91928D61
:100770009F5F9F73928F90E008958FEF9FEF089592
:10078000FC01538D448D252F30E0842F90E0821B97
:10079000930B541710F0CF960895019708958FE1A9
:1007A00095E0892B49F080E090E0892B29F00E94A8
:1007B0001F0581110C9400000895FC01A48DA80F61
:1007C000B92FB11DA35ABF4F2C91848D90E0019693
:1007D0008F739927848FA689B7892C93A089B189B3
:1007E0008C9180648C93938D848D981306C00288BD
:1007F000F389E02D80818F7D80830895CF93DF93EF
:10080000EC01888D8823B9F0AA89BB89E889F98928
:100810008C9185FD03C0808186FD0DC00FB607FC5D
:10082000F7CF8C9185FFF2CF808185FFEDCFCE0190
:100830000E94DD03E9CFDF91CF910895EF92FF92FF
:100840000F931F93CF93DF93EC0181E0888F9B8DF3
:100850008C8D981316C0E889F989808185FF11C0B5
:10086000EE89FF896083E889F989808180648083CB
:1008700081E090E0DF91CF911F910F91FF90EF9079
:100880000895F62E0B8D10E00F5F1F4F0F73112789
:10089000E02E8C8D8E110CC00FB607FCFACFE889C4
:1008A000F989808185FFF5CFCE010E94DD03F1CF6C
:1008B000EB8DEC0FFD2FF11DE35AFF4FF0820B8FF4
:1008C000EA89FB8980818062D2CFCF92DF92EF925A
:1008D000FF921F93CF93DF93EC016A017B01122FEC
:1008E000E889F98982E08083C11481EED806E104A9
:1008F000F104A1F060E079E08DE390E0A7019601BA
:100900000E94260621503109410951095695479503
:1009100037952795211580E1380798F0E889F989FE
:10092000108260E874E88EE190E0A70196010E94D1
:1009300026062150310941095109569547953795A9
:100940002795EC85FD853083EE85FF852083188E05
:10095000EC89FD891083EA89FB898081806180832D
:10096000EA89FB89808188608083EA89FB898081AC
:1009700080688083EA89FB8980818F7D8083DF9115
:10098000CF911F91FF90EF90DF90CF9008951F922D
:100990000F920FB60F9211242F938F939F93EF9383
:1009A000FF93E0919C01F0919D018081E091A20173
:1009B000F091A30182FD1BC090818091A5018F5F02
:1009C0008F732091A601821741F0E091A501F0E01C
:1009D000E457FE4F958F8093A501FF91EF919F9172
:1009E0008F912F910F900FBE0F901F9018958081BF
:1009F000F4CF1F920F920FB60F9211242F933F93B3
:100A00004F935F936F937F938F939F93AF93BF9316
:100A1000EF93FF938CE891E00E94DD03FF91EF914B
:100A2000BF91AF919F918F917F916F915F914F9106
:100A30003F912F910F900FBE0F901F9018958CE84B
:100A400091E00E94920321E0892B09F420E0822F9B
:100A50000895ECE8F1E01382128288EE93E0A0E0C2
:100A6000B0E084839583A683B7838BE291E0918382
:100A7000808385EC90E09587848784EC90E097876D
:100A8000868780EC90E0918B808B81EC90E0938B5B
:100A9000828B82EC90E0958B848B86EC90E0978B38
:100AA000868B118E128E138E148E089508950E94D7
:100AB000C9020E9456050E949200CFECD3E00E942A
:100AC0002A012097E1F30E94CF03F9CFAF92BF92A2
:100AD000CF92DF92EF92FF920F931F93CF93DF930A
:100AE0006C017B018B01040F151FEB015E01AE1839
:100AF000BF08C017D10759F06991D601ED91FC915B
:100B00000190F081E02DC6010995892B79F7C50187
:100B1000DF91CF911F910F91FF90EF90DF90CF90D9
:100B2000BF90AF900895FB0101900020E9F7319745
:100B3000AF01461B570BDC01ED91FC910280F38164
:100B4000E02D09946115710511F00C94930590E066
:100B500080E0089569E371E00C9493050F931F936F
:100B6000CF93DF938C01D0E0C0E06115710519F0DF
:100B70000E949305EC01C8010E94AA058C0F9D1FDD
:100B8000DF91CF911F910F9108958F929F92AF9215
:100B9000BF92EF92FF920F931F93CF93DF93CDB746
:100BA000DEB7A1970FB6F894DEBF0FBECDBF7C01B4
:100BB000FA01CB0119A2223008F42AE08E010F5D60
:100BC0001F4F822E912CB12CA12CBF01A5019401A5
:100BD0000E942606F901CA016A300CF5605DD80151
:100BE0006E938D01232B242B252B79F790E080E049
:100BF000109721F0BD01C7010E949305A1960FB681
:100C0000F894DEBF0FBECDBFDF91CF911F910F9142
:100C1000FF90EF90BF90AF909F908F900895695C88
:100C2000DECF2115310541F4DC01ED91FC910190FD
:100C3000F081E02D642F09940C94C5059A01462F8C
:100C400050E070E060E00C9411060895A1E21A2EC5
:100C5000AA1BBB1BFD010DC0AA1FBB1FEE1FFF1F60
:100C6000A217B307E407F50720F0A21BB30BE40BB0
:100C7000F50B661F771F881F991F1A9469F76095F7
:100C80007095809590959B01AC01BD01CF010895B1
:100C9000EE0FFF1F0590F491E02D0994F894FFCF1B
:100CA00033564D4450565F317C315F564D4450565B
:100CB0000A00564D4450525F00564D4450435F0069
:100CC0005F564D44504300000000001E046605C0FE
:0C0CD00003FE039203AC039E030D0A0018
:00000001FF
