:100000000C9468000C9490000C9490000C94900058
:100010000C9490000C9490000C9490000C94900020
:100020000C9490000C9490000C9490000C94900010
:100030000C9490000C9490000C9490000C94900000
:100040000C9494030C9490000C9474060C94A606E3
:100050000C9490000C9490000C9490000C949000E0
:100060000C9490000C949000000000090003020022
:10007000000405080000000000000000000000016E
:10008000020408102040800102040810200102042C
:100090000810204080400404040404040404020204
:1000A000020202020303030303030202030000002F
:1000B0000023002600290000000000250028002B56
:1000C0000000000000240027002A0000B502D60628
:1000D00011241FBECFEFD8E0DEBFCDBF11E0A0E0FE
:1000E000B1E0E6E4F0E102C005900D92A035B10761
:1000F000D9F722E0A0E5B1E001C01D92A534B20716
:10010000E1F710E0C8E6D0E004C02197FE010E94AC
:10011000F507C636D107C9F70E9404070C942108D9
:100120000C94000048EB5BE060E070E089E591E052
:100130000E947F0240E052EC61E070E089E591E0CE
:100140000E94680261E089E591E00E9465028823CF
:1001500091F061E071E088EA91E00E944F074AE087
:1001600050E060E070E089E591E00E94EB0189E5F4
:1001700091E00E94670241E060E089E591E00E9421
:10018000780361E089E591E00E946502882351F0DF
:1001900062E171E088EA91E00E944F0789E591E011
:1001A0000E94670280EF8AB98BB1807C8BB962E0D4
:1001B00082E00E94AC0462E083E00E94AC048BB158
:1001C000909100018F70907F892B8BB926E040E0E1
:1001D00052EC61E070E088EA91E00C941206CF9353
:1001E00082E00E941605C82F809150018C1761F0A3
:1001F000C093500183E00E941605C817190639F410
:100200008FEF9FEFCF91089590E080E0FBCF81E0EA
:1002100090E0F8CF18169CF49091000180910001B5
:10022000990F881F8827881F892B809300018BB125
:10023000909100018F70907F892B8BB908958091E8
:10024000000120910001869590E8299F90011124DA
:10025000822BEBCFCF92DF92EF92FF920F931F93FF
:100260000E94DE03672B682B692B09F469C089E5BE
:1002700091E00E94EE0160935101709352018093CE
:100280005301909354010091550110915601209112
:10029000570130915801601771078207930708F4DE
:1002A00063C0009155011091560120915701309182
:1002B00058016B017C01C01AD10AE20AF30A9701C6
:1002C00086010A3F11052105310508F441C06093FC
:1002D000550170935601809357019093580144EF54
:1002E00051E060E070E089E591E00E94140361E074
:1002F00089E591E00E9465028823E9F061E089E5E3
:1003000091E00E94020269E171E088EA91E00E94B6
:100310004F070E94DE03AB01BC012AE030E088EA0F
:1003200091E00E94BE0789E591E00E945F0289E5A5
:1003300091E00E94670289E591E00E94320308C0C3
:100340000E94DE03623071058105910508F08FCFB0
:100350000E94EF00009789F01F910F91FF90EF909E
:10036000DF90CF900C940A01609355017093560171
:10037000809357019093580194CF1F910F91FF9054
:10038000EF90DF90CF9008958F929F92AF92BF929F
:10039000CF92DF92EF92FF926A017B010E94DE030F
:1003A0004B015C01C80CD91CEA1CFB1C0E94DE033B
:1003B000681579058A059B0528F0C616D706E80654
:1003C000F906A0F7FF90EF90DF90CF90BF90AF902D
:1003D0009F908F90089521E00C94C4010C94DE034B
:1003E000FC011682178210861186128613861486E7
:1003F000158616861786108A118A128A138A148A1D
:10040000158A0895CF92DF92EF92FF921F93CF93B8
:10041000DF93EC01162F0E94DE036B017C016BE180
:1004200071E088EA91E00E944F074AE050E0612FB6
:1004300088EA91E00E94CB0762E271E088EA91E0ED
:100440000E944F072AE030E0B701A60188EA91E058
:100450000E94BE0764E271E088EA91E00E944F07C3
:100460008E819F81A885B985B701A601481B590BCC
:100470006A0B7B0B2AE030E088EA91E00E94BE071D
:1004800064E271E088EA91E00E944F074E815F814B
:10049000688579858A859B85AC85BD85481B590B08
:1004A0006A0B7B0B2AE030E088EA91E0DF91CF9184
:1004B0001F91FF90EF90DF90CF900C94BE0766E203
:1004C00071E088EA91E00C945B0781E0089508955B
:1004D000CF92DF92EF92FF926A017B0168EE73E0A8
:1004E00080E090E00E940F0426E0B701A60188EAB0
:1004F00091E0FF90EF90DF90CF900C941206FC01FA
:10050000EE5BFF4F1082118212821382FC01128275
:10051000138214821582411551056105710511F090
:100520000C94EB0108951F93CF93DF93EC01162FEA
:100530006DE271E088EA91E00E944F074AE050E0E6
:10054000612F88EA91E00E94CB0764E371E088EABA
:1005500091E00E945B0742E350E060E070E0CE0172
:10056000DF91CF911F910C94EB0189E591E00C9400
:10057000F00188EA91E00E9459050895EF92FF92F8
:100580001F93CF93DF9300D000D0CDB7DEB77C01AF
:1005900088EA91E00E944B058436E1F5C7010E948C
:1005A000B90288EA91E00E94590510E08A3379F097
:1005B000E1E0F0E0EC0FFD1FE10FF11D17FDFA95F2
:1005C00080831F5F88EA91E00E945905EFCFCE013A
:1005D00001960E94FB07182F88EA91E00E945905B6
:1005E0008053990B8230910520F4682F812F0E944F
:1005F000E80488EA91E00E9459058A3011F08D30B4
:10060000C1F788EA91E00E944B058A3019F4C701CE
:100610000E94B9020F900F900F900F90DF91CF9131
:100620001F91FF90EF900895CF93DF93EC014E87D9
:100630005F87688B798B1A8A1B8A1C8A1D8A8E8138
:100640009F81A885B9858A879B87AC87BD870E94D3
:10065000DE036E837F8388879987CE01DF91CF91F8
:100660000C94BE02CF93DF93EC010E94BE020E9465
:10067000DE036E837F8388879987DF91CF9108950A
:100680001F93CF93DF93FC012689222369F1162F54
:10069000EC0188EA91E00E943F0581110BC085E6DC
:1006A000DF91CF911F91089521373105E9F0263769
:1006B0003105B1F388EA91E00E943F05882379F380
:1006C00088EA91E00E9459059C01332728363105BC
:1006D00059F054F72835310549F02336310551F7E3
:1006E000612FCE010E94930283E6DACF1E8AFCCFEF
:1006F0001F93CF93DF93EC01142F662381F081E0E9
:100700008E8B60E0CE010E944003833641F041E0D1
:1007100050E060E070E0CE010E94EB01F2CF1E8B52
:10072000DF91CF911F9108951F920F920FB60F92F4
:1007300011242F933F938F939F93AF93BF938091F7
:10074000A0019091A101A091A201B091A3013091CB
:100750009F0123E0230F2D3758F50196A11DB11DF0
:1007600020939F018093A0019093A101A093A201E7
:10077000B093A3018091A4019091A501A091A6013D
:10078000B091A7010196A11DB11D8093A401909382
:10079000A501A093A601B093A701BF91AF919F912E
:1007A0008F913F912F910F900FBE0F901F90189532
:1007B00026E8230F0296A11DB11DD2CF2FB7F894C2
:1007C0006091A0017091A1018091A2019091A3017B
:1007D0002FBF08953FB7F8948091A4019091A5018F
:1007E000A091A601B091A70126B5A89B05C02F3FF7
:1007F00019F00196A11DB11D3FBFBA2FA92F982F47
:100800008827BC01CD01620F711D811D911D42E041
:10081000660F771F881F991F4A95D1F708958F9209
:100820009F92AF92BF92CF92DF92EF92FF926B01B5
:100830007C010E94EA034B015C01C114D104E10474
:10084000F104E9F00E94D2070E94EA0368197909CD
:100850008A099B09683E73408105910570F321E088
:10086000C21AD108E108F10888EE880E83E0981ECC
:10087000A11CB11CC114D104E104F10429F7FF90BB
:10088000EF90DF90CF90BF90AF909F908F900895A2
:10089000789484B5826084BD84B5816084BD85B55B
:1008A000826085BD85B5816085BDEEE6F0E0808122
:1008B00081608083E1E8F0E0108280818260808343
:1008C000808181608083E0E8F0E0808181608083C6
:1008D000E1EBF0E0808184608083E0EBF0E08081F8
:1008E00081608083EAE7F0E080818460808380819A
:1008F0008260808380818160808380818068808342
:100900001092C1000895843081F028F4823099F06B
:100910008330A9F008958830A9F08930C9F0853076
:10092000B1F4809180008F7D03C0809180008F772B
:1009300080938000089584B58F7784BD089584B531
:100940008F7DFBCF8091B0008F778093B0000895AA
:100950008091B0008F7DF9CFCF93DF9390E0FC01C1
:10096000E158FF4F24918A569F4FFC0184918823C0
:10097000C9F090E0880F991FFC01EF53FF4FA5913C
:10098000B491FC01E954FF4FC591D49161110DC0A0
:100990009FB7F8948C91209582238C93888128238B
:1009A00028839FBFDF91CF910895623051F49FB7A4
:1009B000F8943C91822F809583238C93E8812E2B91
:1009C000EFCF8FB7F894EC912E2B2C938FBFEACFFB
:1009D0001F93CF93DF93282F30E0F901E859FF4FA1
:1009E0008491F901E158FF4FD491F901EA56FF4F84
:1009F000C491CC23A9F0162F81110E948304EC2FFF
:100A0000F0E0EE0FFF1FE954FF4FA591B4918FB7AF
:100A1000F894EC91111108C0D095DE23DC938FBFC0
:100A2000DF91CF911F910895DE2BF8CFCF93DF9305
:100A3000282F30E0F901E859FF4F8491F901E1587E
:100A4000FF4FD491F901EA56FF4FC491CC23A1F096
:100A500081110E948304EC2FF0E0EE0FFF1FE3559D
:100A6000FF4FA591B491EC91ED2381E090E009F462
:100A700080E0DF91CF91089580E090E0FACFFC0113
:100A8000918D228D892F90E0805C9F4F821B910970
:100A90008F7399270895FC01918D828D981731F0FD
:100AA000828DE80FF11D858D90E008958FEF9FEF07
:100AB0000895FC01918D828D981761F0A28DAE0F83
:100AC000BF2FB11D5D968C91928D9F5F9F73928F0A
:100AD00090E008958FEF9FEF0895FC01538D448DB2
:100AE000252F30E0842F90E0821B930B541710F0D9
:100AF000CF960895019708958CEC96E0892B49F0E4
:100B000080E090E0892B29F00E94CC0681110C94A2
:100B100000000895FC01A48DA80FB92FB11DA35AA0
:100B2000BF4F2C91848D90E001968F739927848F0D
:100B3000A689B7892C93A089B1898C9180648C9304
:100B4000938D848D981306C00288F389E02D8081EF
:100B50008F7D80830895CF93DF93EC01888D882368
:100B6000B9F0AA89BB89E889F9898C9185FD03C010
:100B7000808186FD0DC00FB607FCF7CF8C9185FFF5
:100B8000F2CF808185FFEDCFCE010E948A05E9CFAB
:100B9000DF91CF910895EF92FF920F931F93CF9320
:100BA000DF93EC0181E0888F9B8D8C8D981316C0AC
:100BB000E889F989808185FF11C0EE89FF8960830A
:100BC000E889F98980818064808381E090E0DF9109
:100BD000CF911F910F91FF90EF900895F62E0B8DFE
:100BE00010E00F5F1F4F0F731127E02E8C8D8E11B9
:100BF0000CC00FB607FCFACFE889F989808185FF20
:100C0000F5CFCE010E948A05F1CFEB8DEC0FFD2FC1
:100C1000F11DE35AFF4FF0820B8FEA89FB89808137
:100C20008062D2CFCF92DF92EF92FF921F93CF9349
:100C3000DF93EC016A017B01122FE889F98982E0D8
:100C40008083C11481EED806E104F104A1F060E0D4
:100C500079E08DE390E0A70196010E94D30721502F
:100C60003109410951095695479537952795211521
:100C700080E1380798F0E889F989108260E874E823
:100C80008EE190E0A70196010E94D307215031091F
:100C9000410951095695479537952795EC85FD856E
:100CA0003083EE85FF852083188EEC89FD891083C3
:100CB000EA89FB89808180618083EA89FB89808160
:100CC00088608083EA89FB89808180688083EA89E3
:100CD000FB8980818F7D8083DF91CF911F91FF9071
:100CE000EF90DF90CF9008951F920F920FB60F9262
:100CF00011242F938F939F93EF93FF93E091B8016B
:100D0000F091B9018081E091BE01F091BF0182FDB7
:100D10001BC090818091C1018F5F8F732091C201B0
:100D2000821741F0E091C101F0E0E855FE4F958F48
:100D30008093C101FF91EF919F918F912F910F901F
:100D40000FBE0F901F9018958081F4CF1F920F92C5
:100D50000FB60F9211242F933F934F935F936F938E
:100D60007F938F939F93AF93BF93EF93FF9388EA03
:100D700091E00E948A05FF91EF91BF91AF919F9101
:100D80008F917F916F915F914F913F912F910F9034
:100D90000FBE0F901F90189588EA91E00E943F05C2
:100DA00021E0892B09F420E0822F0895E8EAF1E0A0
:100DB0001382128288EE93E0A0E0B0E084839583F2
:100DC000A683B7838FE391E09183808385EC90E0E5
:100DD0009587848784EC90E09787868780EC90E005
:100DE000918B808B81EC90E0938B828B82EC90E0F6
:100DF000958B848B86EC90E0978B868B118E128E70
:100E0000138E148E089508950E9448040E940307CB
:100E10000E949200CCE7D5E00E942A012097E1F3DE
:100E20000E947C05F9CFAF92BF92CF92DF92EF92F2
:100E3000FF920F931F93CF93DF936C017B018B0184
:100E4000040F151FEB015E01AE18BF08C017D107D4
:100E500059F06991D601ED91FC910190F081E02D5E
:100E6000C6010995892B79F7C501DF91CF911F91B3
:100E70000F91FF90EF90DF90CF90BF90AF900895CB
:100E8000FB0101900020E9F73197AF01461B570B9A
:100E9000DC01ED91FC910280F381E02D0994611554
:100EA000710511F00C94400790E080E008956DE426
:100EB00071E00C9440070F931F93CF93DF938C0145
:100EC000D0E0C0E06115710519F00E944007EC0107
:100ED000C8010E9457078C0F9D1FDF91CF911F9172
:100EE0000F9108958F929F92AF92BF92EF92FF92CF
:100EF0000F931F93CF93DF93CDB7DEB7A1970FB6B4
:100F0000F894DEBF0FBECDBF7C01FA01CB0119A260
:100F1000223008F42AE08E010F5D1F4F822E912CA3
:100F2000B12CA12CBF01A50194010E94D307F901A6
:100F3000CA016A300CF5605DD8016E938D01232BD8
:100F4000242B252B79F790E080E0109721F0BD014C
:100F5000C7010E944007A1960FB6F894DEBF0FBEEE
:100F6000CDBFDF91CF911F910F91FF90EF90BF9078
:100F7000AF909F908F900895695CDECF2115310569
:100F800041F4DC01ED91FC910190F081E02D642FA2
:100F900009940C9472079A01462F50E070E060E0CB
:100FA0000C94BE070895A1E21A2EAA1BBB1BFD01DB
:100FB0000DC0AA1FBB1FEE1FFF1FA217B307E40738
:100FC000F50720F0A21BB30BE40BF50B661F771F90
:100FD000881F991F1A9469F7609570958095909570
:100FE0009B01AC01BD01CF010895EE0FFF1F0590DD
:100FF000F491E02D0994FC0188279927E894219128
:101000002032E9F3293010F02E30C8F32B3241F0B2
:101010002D3239F4689404C00E941908820F911D82
:10102000219120532A30C0F31EF4909581959F4F53
:1010300008957AE0979F902D879F802D910D112420
:061040000895F894FFCFB3
:1010460033564D4450565F317C315F564D445056B1
:101056000A00564D4450525F007C00564D445045A0
:101066005F003A323A005F564D44504500564D44B3
:1010760050435F005F564D4450430000000000CBD4
:101086000513076D05AB053F0559054B050D0A0010
:00000001FF
