:100000000C9462000C9499030C9472030C948A0073
:100010000C948A000C948A000C948A000C948A0038
:100020000C948A000C948A000C948A000C948A0028
:100030000C948A000C948A000C948A000C948A0018
:100040000C9428030C948A000C94F6020C94D002B1
:100050000C948A000C948A000C948A000C948A00F8
:100060000C948A000C948A00000000080002010031
:100070000003040700000000000000000000000072
:10008000250028002B0000000000240027002A0083
:10009000010204081020408001020408102001021F
:1000A000040810200000000023002600290004049A
:1000B0000404040404040202020202020303030310
:1000C0000303C00311241FBECFEFD8E0DEBFCDBFB6
:1000D00011E0A0E0B1E0ECE2FBE002C005900D927F
:1000E000A032B107D9F721E0A0E2B1E001C01D9232
:1000F000AC3DB207E1F710E0C2E6D0E004C02197C2
:10010000FE010E948E05C136D107C9F70E944E0438
:100110000C9494050C940000CF93DF9390E0FC01C5
:10012000E057FF4F249182559F4FFC018491882313
:10013000C1F090E0880F991FFC01EA57FF4FC5916D
:10014000D491FC01E458FF4FA591B4919FB7F89466
:100150003881822F809583238883EC91E22BEC9366
:100160009FBFDF91CF910895AF92BF92CF92DF9260
:10017000EF92FF920F931F93CF93DF936C017B015C
:100180008B01040F151FEB015E01AE18BF08C017ED
:10019000D10759F06991D601ED91FC910190F08160
:1001A000E02DC6010995892B79F7C501DF91CF9123
:1001B0001F910F91FF90EF90DF90CF90BF90AF9085
:1001C0000895FC01538D448D252F30E0842F90E05D
:1001D000821B930B541710F0CF9608950197089542
:1001E000FC01918D828D981761F0A28DAE0FBF2F0B
:1001F000B11D5D968C91928D9F5F9F73928F90E061
:1002000008958FEF9FEF0895FC01918D828D9817CF
:1002100031F0828DE80FF11D858D90E008958FEF0C
:100220009FEF0895FC01918D228D892F90E0805CD5
:100230009F4F821B91098F73992708958FE291E058
:100240000E94120121E0892B09F420E0822F0895F9
:1002500080E090E0892B29F00E941E0181110C940E
:1002600000000895FC01A48DA80FB92FB11DA35A59
:10027000BF4F2C91848D90E001968F739927848FC6
:10028000A689B7892C93A089B1898C9183708064E9
:100290008C93938D848D981306C00288F389E02D8A
:1002A00080818F7D80830895EF92FF920F931F933B
:1002B000CF93DF93EC0181E0888F9B8D8C8D981319
:1002C0001AC0E889F989808185FF15C09FB7F89425
:1002D000EE89FF896083E889F98980818370806471
:1002E00080839FBF81E090E0DF91CF911F910F91BC
:1002F000FF90EF900895F62E0B8D10E00F5F1F4FCB
:100300000F731127E02E8C8D8E110CC00FB607FCD9
:10031000FACFE889F989808185FFF5CFCE010E9467
:100320003201F1CFEB8DEC0FFD2FF11DE35AFF4FA2
:10033000F0829FB7F8940B8FEA89FB8980818062F5
:10034000CFCFCF93DF93EC01888D8823B9F0AA89B2
:10035000BB89E889F9898C9185FD03C0808186FD80
:100360000DC00FB607FCF7CF8C9185FFF2CF8081CF
:1003700085FFEDCFCE010E943201E9CFDF91CF9111
:10038000089590E0FC01E859FF4F2491FC01E057EB
:10039000FF4F3491FC01E255FF4FE491EE23C1F190
:1003A000222339F02330E9F090F4213001F122309A
:1003B00011F1F0E0EE0FFF1FEC55FF4FA591B49146
:1003C000EC91E32381E090E029F580E00895273067
:1003D000A9F02830C9F0243061F7809180008F7D2A
:1003E00003C0809180008F7780938000E2CF84B536
:1003F0008F7784BDDECF84B58F7DFBCF8091B00039
:100400008F778093B000D5CF8091B0008F7DF9CFEA
:1004100080E090E008953FB7F89480912501909195
:100420002601A0912701B091280126B5A89B05C0FF
:100430002F3F19F00196A11DB11D3FBFBA2FA92F63
:10044000982F8827BC01CD01620F711D811D911D60
:1004500042E0660F771F881F991F4A95D1F70895CC
:100460000895DC01ED91FD918081ED91FD919081E8
:10047000ED91FD916C9163708E2309F064609F2370
:1004800009F06860EEE4F2E0E60FF11D6595659510
:100490006D936D917D918D919D91099423C01AC0AA
:1004A00012C016C010C01EC009C014C013C006C0C0
:1004B00019C009C00DC007C00DC014C06250704003
:1004C000804090400BC0615070408040904006C01A
:1004D0006E5F01C06F5F7F4F8F4F9F4F9E938E93D4
:1004E0007E936E9308958091CC019091CD010C94F0
:1004F00031028091CE019091CF010C943102FC0128
:1005000001900020E9F73197AF01481B590BBC015E
:100510008FE291E00C94B4008F929F92AF92BF92C1
:100520000F931F93CF93DF93CDB7DEB7A1970FB68D
:10053000F894DEBF0FBECDBF19A2423008F44AE0E6
:100540008E010F5D1F4F842E912CB12CA12CA50183
:1005500094010E946C05E62FB901CA01EA30F4F457
:10056000E05DD801EE938D01232B242B252B79F709
:1005700090E080E0109719F0CD010E947F02A196D3
:100580000FB6F894DEBF0FBECDBFDF91CF911F91A4
:100590000F91BF90AF909F908F900895E95CE1CF4D
:1005A0001F920F920FB60F9211242F933F934F93E8
:1005B0005F936F937F938F939F93AF93BF93EF93CB
:1005C000FF938FE291E00E943201FF91EF91BF9182
:1005D000AF919F918F917F916F915F914F913F91DB
:1005E0002F910F900FBE0F901F9018951F920F9292
:1005F0000FB60F9211242F938F939F93EF93FF9336
:10060000E0913F01F09140018081E0914501F0913E
:10061000460182FD1BC09081809148018F5F8F73DE
:1006200020914901821741F0E0914801F0E0E15D3D
:10063000FE4F958F80934801FF91EF919F918F918D
:100640002F910F900FBE0F901F9018958081F4CFBF
:100650001F920F920FB60F9211242F933F938F93F7
:100660009F93AF93BF938091210190912201A0911C
:100670002301B09124013091200123E0230F2D3775
:1006800058F50196A11DB11D2093200180932101F1
:1006900090932201A0932301B0932401809125011E
:1006A00090912601A0912701B09128010196A11DEA
:1006B000B11D8093250190932601A0932701B0934B
:1006C0002801BF91AF919F918F913F912F910F90F2
:1006D0000FBE0F901F90189526E8230F0296A11DBC
:1006E000B11DD2CF1F920F920FB60F9211242F93EC
:1006F0003F934F935F936F937F938F939F93AF93AA
:10070000BF93EF93FF93E0910201F09103010995EC
:10071000FF91EF91BF91AF919F918F917F916F91D9
:100720005F914F913F912F910F900FBE0F901F90AF
:1007300018951F920F920FB60F9211242F933F938B
:100740004F935F936F937F938F939F93AF93BF93D9
:10075000EF93FF93E0910001F09101010995FF9162
:10076000EF91BF91AF919F918F917F916F915F9129
:100770004F913F912F910F900FBE0F901F901895A2
:10078000CF93DF93109232011092310188EE93E003
:10079000A0E0B0E08093330190933401A093350141
:1007A000B093360188E091E09093300180932F015F
:1007B00085EC90E090933C0180933B0184EC90E0C9
:1007C00090933E0180933D0180EC90E09093400136
:1007D00080933F0181EC90E090934201809341012E
:1007E00082EC90E0909344018093430186EC90E08A
:1007F000909346018093450110924801109249015F
:1008000010924A0110924B018AE00E948C008BE00A
:100810000E948C00E8EBF0E0E491F0E0EE0FFF1FA7
:10082000EC55FF4FA591B491B093D101A093D001A5
:10083000EAE9F0E044914093D401E9EBF0E0E4917F
:10084000F0E0EE0FFF1FEC55FF4FC591D491D09310
:10085000D301C093D201EBE9F0E0E491E093D5013C
:100860001092D7011092D8011092D9011092DA019A
:100870002BE33FE1C9010197F1F79C91842F892374
:1008800091E009F490E08881E82309F09260909368
:10089000D6011092DB01DF91CF910895789484B551
:1008A000826084BD84B5816084BD85B5826085BD6C
:1008B00085B5816085BD80916E00816080936E00FA
:1008C00010928100809181008260809381008091EC
:1008D000810081608093810080918000816080939D
:1008E00080008091B10084608093B1008091B0005D
:1008F00081608093B00080917A00846080937A0058
:1009000080917A00826080937A0080917A00816081
:1009100080937A0080917A00806880937A001092A8
:10092000C1008AE00E948C008BE00E948C008AE06B
:100930000E94C10180932A018BE00E94C101809333
:100940002901E0913F01F091400182E08083E09134
:100950003F01F09140011082E0913B01F0913C0198
:100960001082E0913D01F0913E0180E18083109280
:100970004701E0914301F091440186E08083E091DA
:100980004101F0914201808180618083E0914101C9
:10099000F0914201808188608083E0914101F09173
:1009A0004201808180688083E0914101F0914201A1
:1009B00080818F7D80830E940B024B015C0188EE59
:1009C000C82E83E0D82EE12CF12C0E940B0268196E
:1009D00079098A099B09683E734081059105A8F34E
:1009E00021E0C21AD108E108F10888EE880E83E000
:1009F000981EA11CB11CC114D104E104F10429F713
:100A000086E191E00E947F0200E010E08AE00E940F
:100A1000C101C82F80912A018C1709F448C0C093E6
:100A20002A018BE00E94C101C817190609F44BC0C6
:100A3000C1E0D0E0C0902B01D0902C01E0902D01BE
:100A4000F0902E01C701B6016F5F7F4F8F4F9F4F10
:100A500060932B0170932C0180932D0190932E01B4
:100A600097FF0BC06DE28FE291E00E945401C70135
:100A7000B60160957095809590954AE00E948C0231
:100A800089E191E00E947F02CF3FDC07F9F46DE23B
:100A90008FE291E00E9454014AE061E070E080E062
:100AA00090E00E948C028CE191E00E947F0201158F
:100AB000110509F4ABCF0E941E01882309F4A6CFCB
:100AC0000E940000A3CFCFEFDFEFB4CFBE01DD0F58
:100AD000880B990B4AE0E5CFA1E21A2EAA1BBB1B9B
:100AE000FD010DC0AA1FBB1FEE1FFF1FA217B307FA
:100AF000E407F50720F0A21BB30BE40BF50B661F10
:100B0000771F881F991F1A9469F7609570958095D3
:100B100090959B01AC01BD01CF010895EE0FFF1F21
:0C0B20000590F491E02D0994F894FFCFAB
:100B2C0030023002000000005401B400E100A101C9
:100B3C001201F0000401412D423A20000D0A000080
:00000001FF
